{
  "_format": "hh-sol-artifact-1",
  "contractName": "UserProfile",
  "sourceName": "contracts/UserProfile.sol",
  "abi": [
    {
      "inputs": [],
      "name": "destroy",
      "outputs": [],
      "stateMutability": "nonpayable",
      "type": "function"
    },
    {
      "inputs": [
        {
          "internalType": "address",
          "name": "_user",
          "type": "address"
        }
      ],
      "name": "get",
      "outputs": [
        {
          "components": [
            {
              "internalType": "string",
              "name": "avatar",
              "type": "string"
            },
            {
              "internalType": "string",
              "name": "name",
              "type": "string"
            },
            {
              "internalType": "string",
              "name": "info",
              "type": "string"
            }
          ],
          "internalType": "struct UserProfile.Profile",
          "name": "",
          "type": "tuple"
        }
      ],
      "stateMutability": "view",
      "type": "function"
    },
    {
      "inputs": [
        {
          "internalType": "string",
          "name": "_avatar",
          "type": "string"
        },
        {
          "internalType": "string",
          "name": "_name",
          "type": "string"
        },
        {
          "internalType": "string",
          "name": "_info",
          "type": "string"
        }
      ],
      "name": "update",
      "outputs": [],
      "stateMutability": "nonpayable",
      "type": "function"
    }
  ],
  "bytecode": "0x608060405234801561001057600080fd5b506108af806100206000396000f3fe608060405234801561001057600080fd5b50600436106100415760003560e01c806331c3e4561461004657806383197ef014610062578063c2bc2efc1461006c575b600080fd5b610060600480360381019061005b919061055a565b61009c565b005b61006a61012f565b005b61008660048036038101906100819190610531565b6101a2565b6040516100939190610688565b60405180910390f35b60008060003373ffffffffffffffffffffffffffffffffffffffff1673ffffffffffffffffffffffffffffffffffffffff1681526020019081526020016000209050838160000190805190602001906100f69291906103b0565b508281600101908051906020019061010f9291906103b0565b50818160020190805190602001906101289291906103b0565b5050505050565b6000803373ffffffffffffffffffffffffffffffffffffffff1673ffffffffffffffffffffffffffffffffffffffff1681526020019081526020016000206000808201600061017e9190610436565b60018201600061018e9190610436565b60028201600061019e9190610436565b5050565b6101aa610476565b6000808373ffffffffffffffffffffffffffffffffffffffff1673ffffffffffffffffffffffffffffffffffffffff16815260200190815260200160002060405180606001604052908160008201805461020390610790565b80601f016020809104026020016040519081016040528092919081815260200182805461022f90610790565b801561027c5780601f106102515761010080835404028352916020019161027c565b820191906000526020600020905b81548152906001019060200180831161025f57829003601f168201915b5050505050815260200160018201805461029590610790565b80601f01602080910402602001604051908101604052809291908181526020018280546102c190610790565b801561030e5780601f106102e35761010080835404028352916020019161030e565b820191906000526020600020905b8154815290600101906020018083116102f157829003601f168201915b5050505050815260200160028201805461032790610790565b80601f016020809104026020016040519081016040528092919081815260200182805461035390610790565b80156103a05780601f10610375576101008083540402835291602001916103a0565b820191906000526020600020905b81548152906001019060200180831161038357829003601f168201915b5050505050815250509050919050565b8280546103bc90610790565b90600052602060002090601f0160209004810192826103de5760008555610425565b82601f106103f757805160ff1916838001178555610425565b82800160010185558215610425579182015b82811115610424578251825591602001919060010190610409565b5b5090506104329190610497565b5090565b50805461044290610790565b6000825580601f106104545750610473565b601f0160209004906000526020600020908101906104729190610497565b5b50565b60405180606001604052806060815260200160608152602001606081525090565b5b808211156104b0576000816000905550600101610498565b5090565b60006104c76104c2846106cf565b6106aa565b9050828152602081018484840111156104df57600080fd5b6104ea84828561074e565b509392505050565b60008135905061050181610862565b92915050565b600082601f83011261051857600080fd5b81356105288482602086016104b4565b91505092915050565b60006020828403121561054357600080fd5b6000610551848285016104f2565b91505092915050565b60008060006060848603121561056f57600080fd5b600084013567ffffffffffffffff81111561058957600080fd5b61059586828701610507565b935050602084013567ffffffffffffffff8111156105b257600080fd5b6105be86828701610507565b925050604084013567ffffffffffffffff8111156105db57600080fd5b6105e786828701610507565b9150509250925092565b60006105fc82610700565b610606818561070b565b935061061681856020860161075d565b61061f81610851565b840191505092915050565b6000606083016000830151848203600086015261064782826105f1565b9150506020830151848203602086015261066182826105f1565b9150506040830151848203604086015261067b82826105f1565b9150508091505092915050565b600060208201905081810360008301526106a2818461062a565b905092915050565b60006106b46106c5565b90506106c082826107c2565b919050565b6000604051905090565b600067ffffffffffffffff8211156106ea576106e9610822565b5b6106f382610851565b9050602081019050919050565b600081519050919050565b600082825260208201905092915050565b60006107278261072e565b9050919050565b600073ffffffffffffffffffffffffffffffffffffffff82169050919050565b82818337600083830152505050565b60005b8381101561077b578082015181840152602081019050610760565b8381111561078a576000848401525b50505050565b600060028204905060018216806107a857607f821691505b602082108114156107bc576107bb6107f3565b5b50919050565b6107cb82610851565b810181811067ffffffffffffffff821117156107ea576107e9610822565b5b80604052505050565b7f4e487b7100000000000000000000000000000000000000000000000000000000600052602260045260246000fd5b7f4e487b7100000000000000000000000000000000000000000000000000000000600052604160045260246000fd5b6000601f19601f8301169050919050565b61086b8161071c565b811461087657600080fd5b5056fea26469706673582212202ac9a0fd112447f5dc4422754acd77e143b19348eaf1a75918c1bbe9e3f899cf64736f6c63430008040033",
  "linkReferences": {},
  "deployedLinkReferences": {}
}